{
  "contractName": "Supplychain",
  "abi": [
    {
      "inputs": [],
      "stateMutability": "nonpayable",
      "type": "constructor"
    },
    {
      "inputs": [
        {
          "internalType": "uint256",
          "name": "",
          "type": "uint256"
        }
      ],
      "name": "Data_list",
      "outputs": [
        {
          "internalType": "uint256",
          "name": "temp",
          "type": "uint256"
        },
        {
          "internalType": "uint256",
          "name": "humidity",
          "type": "uint256"
        },
        {
          "internalType": "uint256",
          "name": "hindex",
          "type": "uint256"
        },
        {
          "internalType": "uint256",
          "name": "pid",
          "type": "uint256"
        }
      ],
      "stateMutability": "view",
      "type": "function"
    },
    {
      "inputs": [
        {
          "internalType": "uint256",
          "name": "",
          "type": "uint256"
        },
        {
          "internalType": "uint256",
          "name": "",
          "type": "uint256"
        }
      ],
      "name": "data",
      "outputs": [
        {
          "internalType": "uint256",
          "name": "temp",
          "type": "uint256"
        },
        {
          "internalType": "uint256",
          "name": "humidity",
          "type": "uint256"
        },
        {
          "internalType": "uint256",
          "name": "hindex",
          "type": "uint256"
        },
        {
          "internalType": "uint256",
          "name": "pid",
          "type": "uint256"
        }
      ],
      "stateMutability": "view",
      "type": "function"
    },
    {
      "inputs": [
        {
          "internalType": "uint256",
          "name": "",
          "type": "uint256"
        }
      ],
      "name": "productStatus",
      "outputs": [
        {
          "internalType": "string",
          "name": "location",
          "type": "string"
        },
        {
          "internalType": "uint256",
          "name": "timestamp",
          "type": "uint256"
        },
        {
          "internalType": "string",
          "name": "temp",
          "type": "string"
        },
        {
          "internalType": "string",
          "name": "humidity",
          "type": "string"
        },
        {
          "internalType": "string",
          "name": "heatindex",
          "type": "string"
        },
        {
          "internalType": "uint256",
          "name": "w_id",
          "type": "uint256"
        },
        {
          "internalType": "uint256",
          "name": "p_id",
          "type": "uint256"
        },
        {
          "internalType": "uint256",
          "name": "total_quantity",
          "type": "uint256"
        },
        {
          "internalType": "bool",
          "name": "flag",
          "type": "bool"
        }
      ],
      "stateMutability": "view",
      "type": "function"
    },
    {
      "inputs": [
        {
          "internalType": "uint256",
          "name": "",
          "type": "uint256"
        },
        {
          "internalType": "uint256",
          "name": "",
          "type": "uint256"
        }
      ],
      "name": "product_Status",
      "outputs": [
        {
          "internalType": "string",
          "name": "location",
          "type": "string"
        },
        {
          "internalType": "uint256",
          "name": "timestamp",
          "type": "uint256"
        },
        {
          "internalType": "string",
          "name": "temp",
          "type": "string"
        },
        {
          "internalType": "string",
          "name": "humidity",
          "type": "string"
        },
        {
          "internalType": "string",
          "name": "heatindex",
          "type": "string"
        },
        {
          "internalType": "uint256",
          "name": "w_id",
          "type": "uint256"
        },
        {
          "internalType": "uint256",
          "name": "p_id",
          "type": "uint256"
        },
        {
          "internalType": "uint256",
          "name": "total_quantity",
          "type": "uint256"
        },
        {
          "internalType": "bool",
          "name": "flag",
          "type": "bool"
        }
      ],
      "stateMutability": "view",
      "type": "function"
    },
    {
      "inputs": [
        {
          "internalType": "uint256",
          "name": "",
          "type": "uint256"
        }
      ],
      "name": "products",
      "outputs": [
        {
          "internalType": "uint256",
          "name": "id",
          "type": "uint256"
        },
        {
          "internalType": "string",
          "name": "name",
          "type": "string"
        },
        {
          "internalType": "string",
          "name": "price",
          "type": "string"
        },
        {
          "internalType": "string",
          "name": "description",
          "type": "string"
        },
        {
          "internalType": "string",
          "name": "reqtemp",
          "type": "string"
        },
        {
          "internalType": "string",
          "name": "manufacturing",
          "type": "string"
        },
        {
          "internalType": "uint256",
          "name": "timestamp",
          "type": "uint256"
        }
      ],
      "stateMutability": "view",
      "type": "function"
    },
    {
      "inputs": [
        {
          "internalType": "uint256",
          "name": "",
          "type": "uint256"
        }
      ],
      "name": "products_list",
      "outputs": [
        {
          "internalType": "uint256",
          "name": "id",
          "type": "uint256"
        },
        {
          "internalType": "string",
          "name": "name",
          "type": "string"
        },
        {
          "internalType": "string",
          "name": "price",
          "type": "string"
        },
        {
          "internalType": "string",
          "name": "description",
          "type": "string"
        },
        {
          "internalType": "string",
          "name": "reqtemp",
          "type": "string"
        },
        {
          "internalType": "string",
          "name": "manufacturing",
          "type": "string"
        },
        {
          "internalType": "uint256",
          "name": "timestamp",
          "type": "uint256"
        }
      ],
      "stateMutability": "view",
      "type": "function"
    },
    {
      "inputs": [
        {
          "internalType": "uint256",
          "name": "",
          "type": "uint256"
        }
      ],
      "name": "workers",
      "outputs": [
        {
          "internalType": "string",
          "name": "name",
          "type": "string"
        },
        {
          "internalType": "uint256",
          "name": "id",
          "type": "uint256"
        },
        {
          "internalType": "uint256",
          "name": "timestamp",
          "type": "uint256"
        }
      ],
      "stateMutability": "view",
      "type": "function"
    },
    {
      "inputs": [
        {
          "internalType": "uint256",
          "name": "",
          "type": "uint256"
        }
      ],
      "name": "workers_list",
      "outputs": [
        {
          "internalType": "string",
          "name": "name",
          "type": "string"
        },
        {
          "internalType": "uint256",
          "name": "id",
          "type": "uint256"
        },
        {
          "internalType": "uint256",
          "name": "timestamp",
          "type": "uint256"
        }
      ],
      "stateMutability": "view",
      "type": "function"
    },
    {
      "inputs": [
        {
          "internalType": "string",
          "name": "name",
          "type": "string"
        }
      ],
      "name": "setWorker",
      "outputs": [],
      "stateMutability": "payable",
      "type": "function"
    },
    {
      "inputs": [
        {
          "internalType": "string",
          "name": "name",
          "type": "string"
        },
        {
          "internalType": "string",
          "name": "price",
          "type": "string"
        },
        {
          "internalType": "string",
          "name": "description",
          "type": "string"
        },
        {
          "internalType": "string",
          "name": "reqtemp",
          "type": "string"
        },
        {
          "internalType": "string",
          "name": "manufacturing",
          "type": "string"
        }
      ],
      "name": "AddProduct",
      "outputs": [],
      "stateMutability": "payable",
      "type": "function"
    },
    {
      "inputs": [
        {
          "internalType": "string",
          "name": "location",
          "type": "string"
        },
        {
          "internalType": "string",
          "name": "temp",
          "type": "string"
        },
        {
          "internalType": "string",
          "name": "humidity",
          "type": "string"
        },
        {
          "internalType": "string",
          "name": "heatindex",
          "type": "string"
        },
        {
          "internalType": "uint256",
          "name": "wid",
          "type": "uint256"
        },
        {
          "internalType": "uint256",
          "name": "pid",
          "type": "uint256"
        },
        {
          "internalType": "uint256",
          "name": "total_quantity",
          "type": "uint256"
        },
        {
          "internalType": "bool",
          "name": "flag",
          "type": "bool"
        }
      ],
      "name": "AddStatus",
      "outputs": [],
      "stateMutability": "payable",
      "type": "function"
    },
    {
      "inputs": [
        {
          "internalType": "uint256",
          "name": "temp",
          "type": "uint256"
        },
        {
          "internalType": "uint256",
          "name": "humidity",
          "type": "uint256"
        },
        {
          "internalType": "uint256",
          "name": "hindex",
          "type": "uint256"
        },
        {
          "internalType": "uint256",
          "name": "pid",
          "type": "uint256"
        }
      ],
      "name": "AddData",
      "outputs": [],
      "stateMutability": "payable",
      "type": "function"
    },
    {
      "inputs": [],
      "name": "getWorkerssList",
      "outputs": [
        {
          "components": [
            {
              "internalType": "string",
              "name": "name",
              "type": "string"
            },
            {
              "internalType": "uint256",
              "name": "id",
              "type": "uint256"
            },
            {
              "internalType": "uint256",
              "name": "timestamp",
              "type": "uint256"
            }
          ],
          "internalType": "struct Supplychain.Worker[]",
          "name": "",
          "type": "tuple[]"
        }
      ],
      "stateMutability": "view",
      "type": "function"
    },
    {
      "inputs": [
        {
          "internalType": "uint256",
          "name": "id",
          "type": "uint256"
        }
      ],
      "name": "getProductStatus",
      "outputs": [
        {
          "components": [
            {
              "internalType": "string",
              "name": "location",
              "type": "string"
            },
            {
              "internalType": "uint256",
              "name": "timestamp",
              "type": "uint256"
            },
            {
              "internalType": "string",
              "name": "temp",
              "type": "string"
            },
            {
              "internalType": "string",
              "name": "humidity",
              "type": "string"
            },
            {
              "internalType": "string",
              "name": "heatindex",
              "type": "string"
            },
            {
              "internalType": "uint256",
              "name": "w_id",
              "type": "uint256"
            },
            {
              "internalType": "uint256",
              "name": "p_id",
              "type": "uint256"
            },
            {
              "internalType": "uint256",
              "name": "total_quantity",
              "type": "uint256"
            },
            {
              "internalType": "bool",
              "name": "flag",
              "type": "bool"
            }
          ],
          "internalType": "struct Supplychain.Status[]",
          "name": "",
          "type": "tuple[]"
        }
      ],
      "stateMutability": "view",
      "type": "function"
    },
    {
      "inputs": [
        {
          "internalType": "uint256",
          "name": "id",
          "type": "uint256"
        }
      ],
      "name": "getProductData",
      "outputs": [
        {
          "components": [
            {
              "internalType": "uint256",
              "name": "temp",
              "type": "uint256"
            },
            {
              "internalType": "uint256",
              "name": "humidity",
              "type": "uint256"
            },
            {
              "internalType": "uint256",
              "name": "hindex",
              "type": "uint256"
            },
            {
              "internalType": "uint256",
              "name": "pid",
              "type": "uint256"
            }
          ],
          "internalType": "struct Supplychain.Data[]",
          "name": "",
          "type": "tuple[]"
        }
      ],
      "stateMutability": "view",
      "type": "function"
    },
    {
      "inputs": [],
      "name": "getProducts",
      "outputs": [
        {
          "components": [
            {
              "internalType": "uint256",
              "name": "id",
              "type": "uint256"
            },
            {
              "internalType": "string",
              "name": "name",
              "type": "string"
            },
            {
              "internalType": "string",
              "name": "price",
              "type": "string"
            },
            {
              "internalType": "string",
              "name": "description",
              "type": "string"
            },
            {
              "internalType": "string",
              "name": "reqtemp",
              "type": "string"
            },
            {
              "internalType": "string",
              "name": "manufacturing",
              "type": "string"
            },
            {
              "internalType": "uint256",
              "name": "timestamp",
              "type": "uint256"
            }
          ],
          "internalType": "struct Supplychain.Product[]",
          "name": "",
          "type": "tuple[]"
        }
      ],
      "stateMutability": "view",
      "type": "function"
    }
  ],
  "bytecode": "0x60806040526000600155600060025534801561001a57600080fd5b50336000806101000a81548173ffffffffffffffffffffffffffffffffffffffff021916908373ffffffffffffffffffffffffffffffffffffffff16021790555061322f8061006a6000396000f3fe6080604052600436106100f35760003560e01c8063876afa611161008a578063d6d0be9f11610059578063d6d0be9f1461036b578063eeb21a3b146103a8578063f1a22dc2146103c4578063f7aed77314610403576100f3565b8063876afa61146102b4578063b20fca60146102df578063bd347ed7146102fb578063c29b2f2014610340576100f3565b80635173bd1e116100c65780635173bd1e146101b257806355ed1a01146101f25780637109ad82146102315780637acc0b2014610271576100f3565b80630ea3d3ee146100f857806313f6b1bb1461013d5780632383a2dd1461017a5780632a4994fc14610196575b600080fd5b34801561010457600080fd5b5061011f600480360381019061011a9190612067565b610446565b6040516101349998979695949392919061214e565b60405180910390f35b34801561014957600080fd5b50610164600480360381019061015f9190612067565b6106d1565b60405161017191906123fb565b60405180910390f35b610194600480360381019061018f919061241d565b6109cf565b005b6101b060048036038101906101ab91906125b9565b610ae2565b005b3480156101be57600080fd5b506101d960048036038101906101d49190612602565b610be4565b6040516101e99493929190612642565b60405180910390f35b3480156101fe57600080fd5b5061021960048036038101906102149190612067565b610c31565b60405161022893929190612687565b60405180910390f35b34801561023d57600080fd5b5061025860048036038101906102539190612067565b610cf3565b6040516102689493929190612642565b60405180910390f35b34801561027d57600080fd5b5061029860048036038101906102939190612067565b610d33565b6040516102ab97969594939291906126c5565b60405180910390f35b3480156102c057600080fd5b506102c961101d565b6040516102d69190612869565b60405180910390f35b6102f960048036038101906102f4919061288b565b611122565b005b34801561030757600080fd5b50610322600480360381019061031d9190612602565b611340565b6040516103379998979695949392919061214e565b60405180910390f35b34801561034c57600080fd5b506103556115d8565b6040516103629190612b0c565b60405180910390f35b34801561037757600080fd5b50610392600480360381019061038d9190612067565b611925565b60405161039f9190612c32565b60405180910390f35b6103c260048036038101906103bd9190612c80565b6119bf565b005b3480156103d057600080fd5b506103eb60048036038101906103e69190612067565b611c72565b6040516103fa93929190612687565b60405180910390f35b34801561040f57600080fd5b5061042a60048036038101906104259190612067565b611d23565b60405161043d97969594939291906126c5565b60405180910390f35b600b818154811061045657600080fd5b906000526020600020906009020160009150905080600001805461047990612dd5565b80601f01602080910402602001604051908101604052809291908181526020018280546104a590612dd5565b80156104f25780601f106104c7576101008083540402835291602001916104f2565b820191906000526020600020905b8154815290600101906020018083116104d557829003601f168201915b50505050509080600101549080600201805461050d90612dd5565b80601f016020809104026020016040519081016040528092919081815260200182805461053990612dd5565b80156105865780601f1061055b57610100808354040283529160200191610586565b820191906000526020600020905b81548152906001019060200180831161056957829003601f168201915b50505050509080600301805461059b90612dd5565b80601f01602080910402602001604051908101604052809291908181526020018280546105c790612dd5565b80156106145780601f106105e957610100808354040283529160200191610614565b820191906000526020600020905b8154815290600101906020018083116105f757829003601f168201915b50505050509080600401805461062990612dd5565b80601f016020809104026020016040519081016040528092919081815260200182805461065590612dd5565b80156106a25780601f10610677576101008083540402835291602001916106a2565b820191906000526020600020905b81548152906001019060200180831161068557829003601f168201915b5050505050908060050154908060060154908060070154908060080160009054906101000a900460ff16905089565b6060601e6000838152602001908152602001600020805480602002602001604051908101604052809291908181526020016000905b828210156109c457838290600052602060002090600902016040518061012001604052908160008201805461073a90612dd5565b80601f016020809104026020016040519081016040528092919081815260200182805461076690612dd5565b80156107b35780601f10610788576101008083540402835291602001916107b3565b820191906000526020600020905b81548152906001019060200180831161079657829003601f168201915b50505050508152602001600182015481526020016002820180546107d690612dd5565b80601f016020809104026020016040519081016040528092919081815260200182805461080290612dd5565b801561084f5780601f106108245761010080835404028352916020019161084f565b820191906000526020600020905b81548152906001019060200180831161083257829003601f168201915b5050505050815260200160038201805461086890612dd5565b80601f016020809104026020016040519081016040528092919081815260200182805461089490612dd5565b80156108e15780601f106108b6576101008083540402835291602001916108e1565b820191906000526020600020905b8154815290600101906020018083116108c457829003601f168201915b505050505081526020016004820180546108fa90612dd5565b80601f016020809104026020016040519081016040528092919081815260200182805461092690612dd5565b80156109735780601f1061094857610100808354040283529160200191610973565b820191906000526020600020905b81548152906001019060200180831161095657829003601f168201915b505050505081526020016005820154815260200160068201548152602001600782015481526020016008820160009054906101000a900460ff16151515158152505081526020019060010190610706565b505050509050919050565b604051806080016040528085815260200184815260200183815260200182815250601a6000820151816000015560208201518160010155604082015181600201556060820151816003015590505060216000828152602001908152602001600020601a90806001815401808255809150506001900390600052602060002090600402016000909190919091506000820154816000015560018201548160010155600282015481600201556003820154816003015550506019601a908060018154018082558091505060019003906000526020600020906004020160009091909190915060008201548160000155600182015481600101556002820154816002015560038201548160030155505050505050565b604051806060016040528082815260200160025481526020014281525060166000820151816000019081610b169190612fb2565b506020820151816001015560408201518160020155905050601660206000600254815260200190815260200160002060008201816000019081610b59919061309a565b50600182015481600101556002820154816002015590505060156016908060018154018082558091505060019003906000526020600020906003020160009091909190915060008201816000019081610bb2919061309a565b506001820154816001015560028201548160020155505060026000815480929190610bdc906131b1565b919050555050565b60216020528160005260406000208181548110610c0057600080fd5b9060005260206000209060040201600091509150508060000154908060010154908060020154908060030154905084565b60158181548110610c4157600080fd5b9060005260206000209060030201600091509050806000018054610c6490612dd5565b80601f0160208091040260200160405190810160405280929190818152602001828054610c9090612dd5565b8015610cdd5780601f10610cb257610100808354040283529160200191610cdd565b820191906000526020600020905b815481529060010190602001808311610cc057829003601f168201915b5050505050908060010154908060020154905083565b60198181548110610d0357600080fd5b90600052602060002090600402016000915090508060000154908060010154908060020154908060030154905084565b601f602052806000526040600020600091509050806000015490806001018054610d5c90612dd5565b80601f0160208091040260200160405190810160405280929190818152602001828054610d8890612dd5565b8015610dd55780601f10610daa57610100808354040283529160200191610dd5565b820191906000526020600020905b815481529060010190602001808311610db857829003601f168201915b505050505090806002018054610dea90612dd5565b80601f0160208091040260200160405190810160405280929190818152602001828054610e1690612dd5565b8015610e635780601f10610e3857610100808354040283529160200191610e63565b820191906000526020600020905b815481529060010190602001808311610e4657829003601f168201915b505050505090806003018054610e7890612dd5565b80601f0160208091040260200160405190810160405280929190818152602001828054610ea490612dd5565b8015610ef15780601f10610ec657610100808354040283529160200191610ef1565b820191906000526020600020905b815481529060010190602001808311610ed457829003601f168201915b505050505090806004018054610f0690612dd5565b80601f0160208091040260200160405190810160405280929190818152602001828054610f3290612dd5565b8015610f7f5780601f10610f5457610100808354040283529160200191610f7f565b820191906000526020600020905b815481529060010190602001808311610f6257829003601f168201915b505050505090806005018054610f9490612dd5565b80601f0160208091040260200160405190810160405280929190818152602001828054610fc090612dd5565b801561100d5780601f10610fe25761010080835404028352916020019161100d565b820191906000526020600020905b815481529060010190602001808311610ff057829003601f168201915b5050505050908060060154905087565b60606015805480602002602001604051908101604052809291908181526020016000905b82821015611119578382906000526020600020906003020160405180606001604052908160008201805461107490612dd5565b80601f01602080910402602001604051908101604052809291908181526020018280546110a090612dd5565b80156110ed5780601f106110c2576101008083540402835291602001916110ed565b820191906000526020600020905b8154815290600101906020018083116110d057829003601f168201915b505050505081526020016001820154815260200160028201548152505081526020019060010190611041565b50505050905090565b6040518060e0016040528060015481526020018681526020018581526020018481526020018381526020018281526020014281525060046000820151816000015560208201518160010190816111789190612fb2565b50604082015181600201908161118e9190612fb2565b5060608201518160030190816111a49190612fb2565b5060808201518160040190816111ba9190612fb2565b5060a08201518160050190816111d09190612fb2565b5060c082015181600601559050506004601f600060015481526020019081526020016000206000820154816000015560018201816001019081611213919061309a565b5060028201816002019081611228919061309a565b506003820181600301908161123d919061309a565b5060048201816004019081611252919061309a565b5060058201816005019081611267919061309a565b506006820154816006015590505060036004908060018154018082558091505060019003906000526020600020906007020160009091909190915060008201548160000155600182018160010190816112c0919061309a565b50600282018160020190816112d5919061309a565b50600382018160030190816112ea919061309a565b50600482018160040190816112ff919061309a565b5060058201816005019081611314919061309a565b5060068201548160060155505060016000815480929190611334906131b1565b91905055505050505050565b601e602052816000526040600020818154811061135c57600080fd5b90600052602060002090600902016000915091505080600001805461138090612dd5565b80601f01602080910402602001604051908101604052809291908181526020018280546113ac90612dd5565b80156113f95780601f106113ce576101008083540402835291602001916113f9565b820191906000526020600020905b8154815290600101906020018083116113dc57829003601f168201915b50505050509080600101549080600201805461141490612dd5565b80601f016020809104026020016040519081016040528092919081815260200182805461144090612dd5565b801561148d5780601f106114625761010080835404028352916020019161148d565b820191906000526020600020905b81548152906001019060200180831161147057829003601f168201915b5050505050908060030180546114a290612dd5565b80601f01602080910402602001604051908101604052809291908181526020018280546114ce90612dd5565b801561151b5780601f106114f05761010080835404028352916020019161151b565b820191906000526020600020905b8154815290600101906020018083116114fe57829003601f168201915b50505050509080600401805461153090612dd5565b80601f016020809104026020016040519081016040528092919081815260200182805461155c90612dd5565b80156115a95780601f1061157e576101008083540402835291602001916115a9565b820191906000526020600020905b81548152906001019060200180831161158c57829003601f168201915b5050505050908060050154908060060154908060070154908060080160009054906101000a900460ff16905089565b60606003805480602002602001604051908101604052809291908181526020016000905b8282101561191c57838290600052602060002090600702016040518060e00160405290816000820154815260200160018201805461163990612dd5565b80601f016020809104026020016040519081016040528092919081815260200182805461166590612dd5565b80156116b25780601f10611687576101008083540402835291602001916116b2565b820191906000526020600020905b81548152906001019060200180831161169557829003601f168201915b505050505081526020016002820180546116cb90612dd5565b80601f01602080910402602001604051908101604052809291908181526020018280546116f790612dd5565b80156117445780601f1061171957610100808354040283529160200191611744565b820191906000526020600020905b81548152906001019060200180831161172757829003601f168201915b5050505050815260200160038201805461175d90612dd5565b80601f016020809104026020016040519081016040528092919081815260200182805461178990612dd5565b80156117d65780601f106117ab576101008083540402835291602001916117d6565b820191906000526020600020905b8154815290600101906020018083116117b957829003601f168201915b505050505081526020016004820180546117ef90612dd5565b80601f016020809104026020016040519081016040528092919081815260200182805461181b90612dd5565b80156118685780601f1061183d57610100808354040283529160200191611868565b820191906000526020600020905b81548152906001019060200180831161184b57829003601f168201915b5050505050815260200160058201805461188190612dd5565b80601f01602080910402602001604051908101604052809291908181526020018280546118ad90612dd5565b80156118fa5780601f106118cf576101008083540402835291602001916118fa565b820191906000526020600020905b8154815290600101906020018083116118dd57829003601f168201915b50505050508152602001600682015481525050815260200190600101906115fc565b50505050905090565b606060216000838152602001908152602001600020805480602002602001604051908101604052809291908181526020016000905b828210156119b457838290600052602060002090600402016040518060800160405290816000820154815260200160018201548152602001600282015481526020016003820154815250508152602001906001019061195a565b505050509050919050565b604051806101200160405280898152602001428152602001888152602001878152602001868152602001858152602001848152602001838152602001821515815250600c6000820151816000019081611a189190612fb2565b50602082015181600101556040820151816002019081611a389190612fb2565b506060820151816003019081611a4e9190612fb2565b506080820151816004019081611a649190612fb2565b5060a0820151816005015560c0820151816006015560e082015181600701556101008201518160080160006101000a81548160ff021916908315150217905550905050601e6000848152602001908152602001600020600c908060018154018082558091505060019003906000526020600020906009020160009091909190915060008201816000019081611af9919061309a565b506001820154816001015560028201816002019081611b18919061309a565b5060038201816003019081611b2d919061309a565b5060048201816004019081611b42919061309a565b506005820154816005015560068201548160060155600782015481600701556008820160009054906101000a900460ff168160080160006101000a81548160ff0219169083151502179055505050600b600c908060018154018082558091505060019003906000526020600020906009020160009091909190915060008201816000019081611bd1919061309a565b506001820154816001015560028201816002019081611bf0919061309a565b5060038201816003019081611c05919061309a565b5060048201816004019081611c1a919061309a565b506005820154816005015560068201548160060155600782015481600701556008820160009054906101000a900460ff168160080160006101000a81548160ff02191690831515021790555050505050505050505050565b60208052806000526040600020600091509050806000018054611c9490612dd5565b80601f0160208091040260200160405190810160405280929190818152602001828054611cc090612dd5565b8015611d0d5780601f10611ce257610100808354040283529160200191611d0d565b820191906000526020600020905b815481529060010190602001808311611cf057829003601f168201915b5050505050908060010154908060020154905083565b60038181548110611d3357600080fd5b9060005260206000209060070201600091509050806000015490806001018054611d5c90612dd5565b80601f0160208091040260200160405190810160405280929190818152602001828054611d8890612dd5565b8015611dd55780601f10611daa57610100808354040283529160200191611dd5565b820191906000526020600020905b815481529060010190602001808311611db857829003601f168201915b505050505090806002018054611dea90612dd5565b80601f0160208091040260200160405190810160405280929190818152602001828054611e1690612dd5565b8015611e635780601f10611e3857610100808354040283529160200191611e63565b820191906000526020600020905b815481529060010190602001808311611e4657829003601f168201915b505050505090806003018054611e7890612dd5565b80601f0160208091040260200160405190810160405280929190818152602001828054611ea490612dd5565b8015611ef15780601f10611ec657610100808354040283529160200191611ef1565b820191906000526020600020905b815481529060010190602001808311611ed457829003601f168201915b505050505090806004018054611f0690612dd5565b80601f0160208091040260200160405190810160405280929190818152602001828054611f3290612dd5565b8015611f7f5780601f10611f5457610100808354040283529160200191611f7f565b820191906000526020600020905b815481529060010190602001808311611f6257829003601f168201915b505050505090806005018054611f9490612dd5565b80601f0160208091040260200160405190810160405280929190818152602001828054611fc090612dd5565b801561200d5780601f10611fe25761010080835404028352916020019161200d565b820191906000526020600020905b815481529060010190602001808311611ff057829003601f168201915b5050505050908060060154905087565b6000604051905090565b600080fd5b600080fd5b6000819050919050565b61204481612031565b811461204f57600080fd5b50565b6000813590506120618161203b565b92915050565b60006020828403121561207d5761207c612027565b5b600061208b84828501612052565b91505092915050565b600081519050919050565b600082825260208201905092915050565b60005b838110156120ce5780820151818401526020810190506120b3565b60008484015250505050565b6000601f19601f8301169050919050565b60006120f682612094565b612100818561209f565b93506121108185602086016120b0565b612119816120da565b840191505092915050565b61212d81612031565b82525050565b60008115159050919050565b61214881612133565b82525050565b6000610120820190508181036000830152612169818c6120eb565b9050612178602083018b612124565b818103604083015261218a818a6120eb565b9050818103606083015261219e81896120eb565b905081810360808301526121b281886120eb565b90506121c160a0830187612124565b6121ce60c0830186612124565b6121db60e0830185612124565b6121e961010083018461213f565b9a9950505050505050505050565b600081519050919050565b600082825260208201905092915050565b6000819050602082019050919050565b600082825260208201905092915050565b600061223f82612094565b6122498185612223565b93506122598185602086016120b0565b612262816120da565b840191505092915050565b61227681612031565b82525050565b61228581612133565b82525050565b60006101208301600083015184820360008601526122a98282612234565b91505060208301516122be602086018261226d565b50604083015184820360408601526122d68282612234565b915050606083015184820360608601526122f08282612234565b9150506080830151848203608086015261230a8282612234565b91505060a083015161231f60a086018261226d565b5060c083015161233260c086018261226d565b5060e083015161234560e086018261226d565b5061010083015161235a61010086018261227c565b508091505092915050565b6000612371838361228b565b905092915050565b6000602082019050919050565b6000612391826121f7565b61239b8185612202565b9350836020820285016123ad85612213565b8060005b858110156123e957848403895281516123ca8582612365565b94506123d583612379565b925060208a019950506001810190506123b1565b50829750879550505050505092915050565b600060208201905081810360008301526124158184612386565b905092915050565b6000806000806080858703121561243757612436612027565b5b600061244587828801612052565b945050602061245687828801612052565b935050604061246787828801612052565b925050606061247887828801612052565b91505092959194509250565b600080fd5b600080fd5b7f4e487b7100000000000000000000000000000000000000000000000000000000600052604160045260246000fd5b6124c6826120da565b810181811067ffffffffffffffff821117156124e5576124e461248e565b5b80604052505050565b60006124f861201d565b905061250482826124bd565b919050565b600067ffffffffffffffff8211156125245761252361248e565b5b61252d826120da565b9050602081019050919050565b82818337600083830152505050565b600061255c61255784612509565b6124ee565b90508281526020810184848401111561257857612577612489565b5b61258384828561253a565b509392505050565b600082601f8301126125a05761259f612484565b5b81356125b0848260208601612549565b91505092915050565b6000602082840312156125cf576125ce612027565b5b600082013567ffffffffffffffff8111156125ed576125ec61202c565b5b6125f98482850161258b565b91505092915050565b6000806040838503121561261957612618612027565b5b600061262785828601612052565b925050602061263885828601612052565b9150509250929050565b60006080820190506126576000830187612124565b6126646020830186612124565b6126716040830185612124565b61267e6060830184612124565b95945050505050565b600060608201905081810360008301526126a181866120eb565b90506126b06020830185612124565b6126bd6040830184612124565b949350505050565b600060e0820190506126da600083018a612124565b81810360208301526126ec81896120eb565b9050818103604083015261270081886120eb565b9050818103606083015261271481876120eb565b9050818103608083015261272881866120eb565b905081810360a083015261273c81856120eb565b905061274b60c0830184612124565b98975050505050505050565b600081519050919050565b600082825260208201905092915050565b6000819050602082019050919050565b600060608301600083015184820360008601526127a08282612234565b91505060208301516127b5602086018261226d565b5060408301516127c8604086018261226d565b508091505092915050565b60006127df8383612783565b905092915050565b6000602082019050919050565b60006127ff82612757565b6128098185612762565b93508360208202850161281b85612773565b8060005b85811015612857578484038952815161283885826127d3565b9450612843836127e7565b925060208a0199505060018101905061281f565b50829750879550505050505092915050565b6000602082019050818103600083015261288381846127f4565b905092915050565b600080600080600060a086880312156128a7576128a6612027565b5b600086013567ffffffffffffffff8111156128c5576128c461202c565b5b6128d18882890161258b565b955050602086013567ffffffffffffffff8111156128f2576128f161202c565b5b6128fe8882890161258b565b945050604086013567ffffffffffffffff81111561291f5761291e61202c565b5b61292b8882890161258b565b935050606086013567ffffffffffffffff81111561294c5761294b61202c565b5b6129588882890161258b565b925050608086013567ffffffffffffffff8111156129795761297861202c565b5b6129858882890161258b565b9150509295509295909350565b600081519050919050565b600082825260208201905092915050565b6000819050602082019050919050565b600060e0830160008301516129d6600086018261226d565b50602083015184820360208601526129ee8282612234565b91505060408301518482036040860152612a088282612234565b91505060608301518482036060860152612a228282612234565b91505060808301518482036080860152612a3c8282612234565b91505060a083015184820360a0860152612a568282612234565b91505060c0830151612a6b60c086018261226d565b508091505092915050565b6000612a8283836129be565b905092915050565b6000602082019050919050565b6000612aa282612992565b612aac818561299d565b935083602082028501612abe856129ae565b8060005b85811015612afa5784840389528151612adb8582612a76565b9450612ae683612a8a565b925060208a01995050600181019050612ac2565b50829750879550505050505092915050565b60006020820190508181036000830152612b268184612a97565b905092915050565b600081519050919050565b600082825260208201905092915050565b6000819050602082019050919050565b608082016000820151612b70600085018261226d565b506020820151612b83602085018261226d565b506040820151612b96604085018261226d565b506060820151612ba9606085018261226d565b50505050565b6000612bbb8383612b5a565b60808301905092915050565b6000602082019050919050565b6000612bdf82612b2e565b612be98185612b39565b9350612bf483612b4a565b8060005b83811015612c25578151612c0c8882612baf565b9750612c1783612bc7565b925050600181019050612bf8565b5085935050505092915050565b60006020820190508181036000830152612c4c8184612bd4565b905092915050565b612c5d81612133565b8114612c6857600080fd5b50565b600081359050612c7a81612c54565b92915050565b600080600080600080600080610100898b031215612ca157612ca0612027565b5b600089013567ffffffffffffffff811115612cbf57612cbe61202c565b5b612ccb8b828c0161258b565b985050602089013567ffffffffffffffff811115612cec57612ceb61202c565b5b612cf88b828c0161258b565b975050604089013567ffffffffffffffff811115612d1957612d1861202c565b5b612d258b828c0161258b565b965050606089013567ffffffffffffffff811115612d4657612d4561202c565b5b612d528b828c0161258b565b9550506080612d638b828c01612052565b94505060a0612d748b828c01612052565b93505060c0612d858b828c01612052565b92505060e0612d968b828c01612c6b565b9150509295985092959890939650565b7f4e487b7100000000000000000000000000000000000000000000000000000000600052602260045260246000fd5b60006002820490506001821680612ded57607f821691505b602082108103612e0057612dff612da6565b5b50919050565b60008190508160005260206000209050919050565b60006020601f8301049050919050565b600082821b905092915050565b600060088302612e687fffffffffffffffffffffffffffffffffffffffffffffffffffffffffffffffff82612e2b565b612e728683612e2b565b95508019841693508086168417925050509392505050565b6000819050919050565b6000612eaf612eaa612ea584612031565b612e8a565b612031565b9050919050565b6000819050919050565b612ec983612e94565b612edd612ed582612eb6565b848454612e38565b825550505050565b600090565b612ef2612ee5565b612efd818484612ec0565b505050565b5b81811015612f2157612f16600082612eea565b600181019050612f03565b5050565b601f821115612f6657612f3781612e06565b612f4084612e1b565b81016020851015612f4f578190505b612f63612f5b85612e1b565b830182612f02565b50505b505050565b600082821c905092915050565b6000612f8960001984600802612f6b565b1980831691505092915050565b6000612fa28383612f78565b9150826002028217905092915050565b612fbb82612094565b67ffffffffffffffff811115612fd457612fd361248e565b5b612fde8254612dd5565b612fe9828285612f25565b600060209050601f83116001811461301c576000841561300a578287015190505b6130148582612f96565b86555061307c565b601f19841661302a86612e06565b60005b828110156130525784890151825560018201915060208501945060208101905061302d565b8683101561306f578489015161306b601f891682612f78565b8355505b6001600288020188555050505b505050505050565b60008154905061309381612dd5565b9050919050565b8181036130a8575050613180565b6130b182613084565b67ffffffffffffffff8111156130ca576130c961248e565b5b6130d48254612dd5565b6130df828285612f25565b6000601f83116001811461310e57600084156130fc578287015490505b6131068582612f96565b865550613179565b601f19841661311c87612e06565b965061312786612e06565b60005b8281101561314f5784890154825560018201915060018501945060208101905061312a565b8683101561316c5784890154613168601f891682612f78565b8355505b6001600288020188555050505b5050505050505b565b7f4e487b7100000000000000000000000000000000000000000000000000000000600052601160045260246000fd5b60006131bc82612031565b91507fffffffffffffffffffffffffffffffffffffffffffffffffffffffffffffffff82036131ee576131ed613182565b5b60018201905091905056fea264697066735822122005db97ec66bb6652bb06c92a21c3cfa970d8e0e2a2c2fc35e168b48c5e7c49a564736f6c63430008120033",
  "immutableReferences": {},
  "source": "/**\r\n *Submitted for verification at Etherscan.io on 2022-04-19\r\n*/\r\n\r\n// SPDX-License-Identifier: GPL-3.0\r\npragma solidity >= 0.8.0;\r\n\r\ncontract Supplychain{\r\n\r\n    address owner;\r\n   \r\n   constructor() public {\r\n      owner = msg.sender;\r\n   }\r\n\r\nuint256 product_id=0;\r\nuint256 worker_id=0;\r\n\r\nstruct Product{\r\n    uint256 id;\r\n    string name;\r\n    string price;\r\n    string description;\r\n    string reqtemp;\r\n    string manufacturing;\r\n    uint256 timestamp;\r\n}\r\n\r\nstruct Status{\r\n    string location;\r\n    uint256 timestamp;\r\n    string temp;\r\n    string humidity;\r\n    string heatindex;\r\n    uint256 w_id;\r\n    uint256 p_id;\r\n    uint256 total_quantity;\r\n    bool flag;\r\n}\r\n\r\nstruct Worker{\r\n    string name;\r\n    uint256 id;\r\n    uint256 timestamp;\r\n}\r\n\r\nstruct Data {\r\n    uint256 temp;\r\n    uint256 humidity;\r\n    uint256 hindex;\r\n    uint256 pid;\r\n}\r\n\r\nmodifier onlyOwner {\r\n      require(msg.sender == owner);\r\n      _;\r\n   }\r\n\r\nProduct[] public products_list;\r\nProduct private productInfo;\r\nStatus[] public productStatus;\r\nStatus private statusInfo;\r\nWorker[] public workers_list;\r\nWorker private workerInfo;\r\nData[] public Data_list;\r\nData private DataInfo;\r\n\r\n\r\nmapping(uint256 => Status[]) public product_Status;\r\nmapping (uint256 => Product) public products;\r\nmapping (uint256 => Worker) public workers;\r\nmapping (uint256 => Data[]) public data;\r\n\r\n\r\nfunction setWorker(string memory name) public  payable\r\n{\r\n    workerInfo=Worker(name,worker_id,block.timestamp);\r\n    workers[worker_id]=workerInfo;\r\n    workers_list.push(workerInfo);\r\n    worker_id++;\r\n\r\n}\r\n\r\nfunction AddProduct(\r\n    string memory name,\r\n    string memory price,\r\n    string memory description,\r\n    string memory reqtemp,\r\n    string memory manufacturing) public payable\r\n{\r\n    productInfo=Product(product_id,name,price,description,reqtemp,manufacturing,block.timestamp);\r\n    products[product_id]=(productInfo);\r\n    products_list.push(productInfo);\r\n    product_id++;\r\n\r\n}\r\n\r\nfunction AddStatus( string memory location,\r\n    \r\n    string  memory temp,\r\n    string  memory humidity,\r\n    string  memory heatindex,\r\n    uint256 wid,\r\n    uint256 pid,\r\n    uint256 total_quantity,\r\n    bool flag\r\n) public payable {\r\n\r\n    statusInfo= Status(location,block.timestamp,temp,humidity,heatindex,wid,pid,total_quantity,flag);\r\n    product_Status[pid].push(statusInfo);\r\n    productStatus.push(statusInfo);\r\n}\r\n\r\n\r\nfunction AddData( uint256 temp,\r\n    uint256 humidity,\r\n    uint256 hindex,uint256 pid) public payable {\r\n\r\n        DataInfo = Data(temp,humidity,hindex,pid);\r\n        data[pid].push(DataInfo);\r\n        Data_list.push(DataInfo);\r\n        }\r\nfunction getWorkerssList() public view returns(Worker[] memory)\r\n{\r\n    return workers_list;\r\n}\r\n\r\nfunction getProductStatus(uint256 id) public view returns(Status[] memory){\r\n\r\n    return product_Status[id];\r\n}\r\n\r\nfunction getProductData(uint256 id) public view returns(Data[] memory){\r\n\r\n    return data[id];\r\n}\r\n\r\nfunction getProducts() public view returns(Product[] memory){\r\n\r\n    return products_list ;\r\n}\r\n\r\n\r\n}",
  "sourcePath": "D:\\Track-Pharma-Ishank\\truffle\\contracts\\SupplyChain.sol",
  "compiler": {
    "name": "solc",
    "version": "0.8.18+commit.87f61d96.Emscripten.clang"
  },
  "schemaVersion": "3.4.16",
  "updatedAt": "2024-12-29T14:15:59.993Z",
  "devdoc": {
    "kind": "dev",
    "methods": {},
    "version": 1
  },
  "userdoc": {
    "kind": "user",
    "methods": {},
    "version": 1
  }
}